:100000000C9434000C9449000C9449000C94490061
:100010000C9449000C9449000C9449000C9449003C
:100020000C9449000C9449000C9449000C9449002C
:100030000C9449000C9449000C9449000C9449001C
:100040000C9449000C9449000C9449000C9449000C
:100050000C9449000C9449000C9449000C944900FC
:100060000C9449000C94490011241FBECFEFD8E036
:10007000DEBFCDBF11E0A0E0B1E0E2EAF2E002C0F5
:1000800005900D92A031B107D9F70E9421010C947F
:100090004F010C940000CF93DF93EC0181E88BB902
:1000A0009E01ADECBCEC0E944001AC015695479519
:1000B00056954795569547959A01220F331FCA01C9
:1000C000880F991F880F991F880F991F820F931F00
:1000D000FE01E81BF90BFF27E050FF4F808188B934
:1000E0008FE19EE40197F1F700C0000081E48BB935
:1000F0009A010E94400196958795969587959695C9
:1001000087959C01220F331F880F991F880F991F15
:10011000880F991F820F931FFA01E81BF90BFF2725
:10012000E050FF4F808188B98FE19EE40197F1F79D
:1001300000C0000081E28BB99E0136952795369567
:100140002795ABE7B4E10E944001AC015695479575
:100150009A01ADECBCEC0E9440019695879596956E
:100160008795969587959C01220F331F880F991FBD
:10017000880F991F880F991F820F931FFA01E81BA0
:10018000F90BFF27E050FF4F808188B98FE19EE493
:100190000197F1F700C0000081E18BB99E0136950F
:1001A00027953695279536952795A5ECB0E20E94C0
:1001B0004001AC01529542954F7045275F7045272D
:1001C0009A01ADECBCEC0E944001969587959695FE
:1001D0008795969587959C01220F331F880F991F4D
:1001E000880F991F880F991F820F931FFA01E81B30
:1001F000F90BFF27E050FF4F808188B98FE19EE423
:100200000197F1F700C00000DF91CF9108954A995E
:100210000EC0EFE3FCE93197F1F700C000008F302A
:10022000F7E29F0710F40196089580E090E00895AA
:10023000499903C04A9B02C00895089580E090E068
:1002400008958FEF87B981EF8AB901E010E0E12CC2
:10025000F12C02C00E2D1F2DC2E3D0E0C8010E9478
:100260004B002197D9F7C8010E9407010E9418018D
:10027000803127E2920770F78C010F5F1F4FECCFA0
:10028000A29FB001B39FC001A39F700D811D1124D7
:10029000911DB29F700D811D1124911D0895F89438
:0202A000FFCF8E
:1002A2003F065B4F666D7D077F6F777C395E7971A4
:00000001FF
