:100000000C9434000C9449000C9449000C94490061
:100010000C9449000C9449000C9449000C9449003C
:100020000C9449000C9449000C9449000C9449002C
:100030000C9449000C9449000C9449000C9449001C
:100040000C9449000C9449000C9449000C9449000C
:100050000C9449000C9449000C9449000C944900FC
:100060000C9449000C94490011241FBECFEFD8E036
:10007000DEBFCDBF11E0A0E0B1E0E8E0F2E002C0F9
:1000800005900D92A031B107D9F70E94D0000C94D1
:1000900002010C940000FC0181E88BB92AE030E0F9
:1000A000CF01B9010E94EE00DC01A050BF4F8C913E
:1000B00088B98FE19EE40197F1F700C0000081E468
:1000C0008BB9CB01B9010E94EE00DC01A050BF4FFB
:1000D0008C9188B98FE19EE40197F1F700C0000090
:1000E00081E28BB9CF0164E670E00E94EE00CB01A3
:1000F000B9010E94EE00DC01A050BF4F8C9188B97D
:100100008FE19EE40197F1F700C0000081E18BB917
:10011000CF0168EE73E00E94EE00CB01B9010E94AE
:10012000EE00FC01E050FF4F808188B98FE19EE432
:100130000197F1F700C00000089549990EC0EFE360
:10014000FCE93197F1F700C00000499906C091E041
:10015000813009F490E0892F089508954A9905C0E7
:100160004A9903C080E090E008950895611108C0A5
:10017000803127E2920768F49C012F5F3F4F0EC049
:10018000613031F4009741F09C012150310906C0E3
:10019000089520E030E002C02FE037E2C901089561
:1001A0008FEF87B981EF8AB9F12CC0E0D0E001E090
:1001B00010E0C8010E944B008F2D0E949D00F82E78
:1001C0002196C233D105A9F7C8010E94AE006F2D58
:1001D0000E94B6008C01C0E0D0E0EBCFAA1BBB1B95
:1001E00051E107C0AA1FBB1FA617B70710F0A61B37
:1001F000B70B881F991F5A95A9F780959095BC0158
:08020000CD010895F894FFCF31
:100208003F065B4F666D7D077F6F777C395E79713E
:00000001FF
