S00E00004857303630322E73726563AF
S11300000C9434000C943E000C943E000C943E007E
S11300100C943E000C943E000C943E000C943E0064
S11300200C943E000C943E000C943E000C943E0054
S11300300C943E000C943E000C943E000C943E0044
S11300400C943E000C943E000C943E000C943E0034
S11300500C943E000C943E000C943E000C943E0024
S11300600C943E000C943E0011241FBECFEFD8E048
S1130070DEBFCDBF0E9447000C945B000C940000CF
S1130080982F9695980F9F778078890F089514B8C4
S113009090EF97B99FEF9AB996B123B1392F317088
S11300A090FD04C0822F0E94400003C0313009F447
S10D00B0822F8BB9F1CFF894FFCF33
S9030000FC
