S01000004857315F303630382E7372656317
S11300000C9434000C943E000C943E000C943E007E
S11300100C943E000C943E000C943E000C943E0064
S11300200C943E000C943E000C943E000C943E0054
S11300300C943E000C943E000C943E000C943E0044
S11300400C943E000C943E000C943E000C943E0034
S11300500C943E000C943E000C943E000C943E0024
S11300600C943E000C943E0011241FBECFEFD8E048
S1130070DEBFCDBF0E9465000C94A8000C94000064
S113008098E081E08BB92FE739EA43E02150304012
S11300904040E1F700C00000880F915099F708959F
S11300A08BB92FE789EA93E0215080409040E1F733
S11300B000C000001BB82FE789EA93E0215080407C
S11300C09040E1F700C0000008958FEF8AB917B897
S11300D014B883B166B16F7019F40E944000F9CF6F
S11300E0082E000C990B062E000C770B0E94800042
S11300F0662324F0862F0E945000EBCF6BB9E9CF22
S113010097FB072E16F4009407D077FD09D00E94C0
S1130110940007FC05D03EF4909581959F4F089577
S1130120709561957F4F0895AA1BBB1B51E107C0D1
S1130130AA1FBB1FA617B70710F0A61BB70B881F73
S1130140991F5A95A9F780959095BC01CD01089502
S1070150F894FFCF4D
S9030000FC
