S00F000048575F303730382E7372656348
S11300000C9434000C9449000C9449000C9449005D
S11300100C9449000C9449000C9449000C94490038
S11300200C9449000C9449000C9449000C94490028
S11300300C9449000C9449000C9449000C94490018
S11300400C9449000C9449000C9449000C94490008
S11300500C9449000C9449000C9449000C944900F8
S11300600C9449000C94490011241FBECFEFD8E032
S1130070DEBFCDBF11E0A0E0B1E0E8E0F2E002C0F5
S113008005900D92A031B107D9F70E94C3000C94DA
S113009002010C9400009DEC899FE12D1124E6954A
S11300A0E695E6953E2F330F232F220F220F230FC1
S11300B0A82FA21BB0E0A050BF4F2C9128B921E17A
S11300C02BB9E99F912D1124969596959695990FA4
S11300D0292F220F220F920FE91BF0E0E050FF4F6F
S11300E0908198B991E29BB9E9E28E9FE12D1124A8
S11300F0E295EF70F0E0E050FF4F908198B991E401
S11301009BB990E068EE73E00E94DA00CB016AE0EC
S113011070E00E94DA00FC01FF27E050FF4F80816D
S113012088B981E88BB92FEF83ED90E321508040AB
S11301309040E1F700C00000089549990EC0EFE334
S1130140FCE93197F1F700C00000499906C091E03D
S1130150813009F490E0892F089508954A9903C0E5
S11301604A9B02C00895089580E00895611102C079
S11301708F5F0895613021F4882319F08150089528
S1130180089580E108958FEF87B981EF8AB9D0E0AF
S1130190C1E08C2F0E944B006D2F8C2F0E94B60063
S11301A0C82F8D2F0E949D00D82F8C2F0E94AE0047
S11301B0C82FEFCF97FB072E16F4009407D077FDD6
S11301C009D00E94EE0007FC05D03EF4909581957D
S11301D09F4F0895709561957F4F0895AA1BBB1B8F
S11301E051E107C0AA1FBB1FA617B70710F0A61B33
S11301F0B70B881F991F5A95A9F780959095BC0154
S10B0200CD010895F894FFCF2D
S11302083F065B4F666D7D077F6F777C395E79713A
S9030000FC
