:100000000C942A000C943F000C943F000C943F0089
:100010000C943F000C943F000C943F000C943F0064
:100020000C943F000C943F000C943F000C943F0054
:100030000C943F000C943F000C943F000C943F0044
:100040000C943F000C943F000C943F000C943F0034
:100050000C943F0011241FBECFE5D8E0DEBFCDBF1A
:1000600010E0A0E6B0E0E4E6F1E002C005900D92F9
:10007000AA36B107D9F70E9493000C94B0000C94F3
:1000800000009DEC899FE12D1124E695E695E6950B
:100090003E2F330F232F220F220F230F821BA82F57
:1000A000B0E0A05ABF4F8C9182BBE99F812D1124F3
:1000B000869586958695880F982F990F990F890FA9
:1000C000E81BF0E0E05AFF4F808185BB2FEF83ED06
:1000D00090E3215080409040E1F700C00000089577
:1000E000811104C0662341F0615009C0813039F4A8
:1000F000641720F46F5F03C0642F01C060E0862F97
:100100000895813011F499B303C0823009F496B395
:10011000892F8F718A3008F089E0089586B3881F8F
:100120008827881F08951ABA17BA8FEF84BB81BB3E
:10013000D0E081E00E948100C82F82E00E9481000F
:10014000CC0F9C2F990F990FC90FC80F0E948E00DA
:100150004C2F6D2F0E947000D82F0E944100E9CFD4
:04016000F894FFCF41
:0A01640040792430191202780010CF
:00000001FF
