S00E00006877365F31342E737265633D
S11300000C9434000C943E000C943E000C943E007E
S11300100C943E000C943E000C943E000C943E0064
S11300200C943E000C943E000C943E000C943E0054
S11300300C943E000C943E000C943E000C943E0044
S11300400C943E000C943E000C943E000C943E0034
S11300500C943E005D0049004B004D004F005100E0
S1130060530055005700590011241FBECFE5D8E0B6
S1130070DEBFCDBF0E945F000C94A8000C9400006A
S113008090E08A309105B8F4FC01E65DFF4F0C94D2
S1130090A20089EF089584EA089580EB089589E920
S11300A0089582E9089582E8089588EF089580E824
S11300B0089580E908958FEF089580EC08951ABAA1
S11300C017BA8FEF84BB81BBC0E0D0E096B3292F71
S11300D02F7189B38F7199236CF4CF5FCA3010F4F8
S11300E02C17F0F4DF5FDA30B8F48D17C0F4C0E0F9
S11300F0D0E016C0C1110EC0D11109C0D82F8A306A
S113010008F0D9E0C22F2A3058F0C9E009C0D15014
S1130110C22F06C0C15004C0C0E0D0E001C0C0E09E
S11301202FEF89E698E1215080409040E1F700C02C
S113013000008C2F0E94400082BB8D2F0E94400043
S113014085BBC4CFEE0FFF1F0590F491E02D0994F9
S1070150F894FFCF4D
S9030000FC
