:100000000C9434000C9449000C9449000C94490061
:100010000C9449000C9449000C9449000C9449003C
:100020000C9449000C9449000C9449000C9449002C
:100030000C9449000C9449000C9449000C9449001C
:100040000C9449000C9449000C9449000C9449000C
:100050000C9449000C9449000C9449000C944900FC
:100060000C9449000C94490011241FBECFEFD8E036
:10007000DEBFCDBF11E0A0E0B1E0E2E3F1E002C0FD
:1000800005900D92A031B107D9F70E9475000C942C
:1000900097000C94000049990EC0EFE3FCE93197FA
:1000A000F1F700C00000499906C091E0813009F4E1
:1000B00090E0892F089508954A9903C04A9B02C091
:1000C0000895089580E00895611104C0803148F4D6
:1000D0008F5F0895613021F4882329F081500895BD
:1000E000089580E008958FE008958FEF87B981E04B
:1000F0008AB980E011E0E82FF0E0E050FF4F9081F6
:1001000098B91BB92FEF33ED90E321503040904068
:10011000E1F700C000006C2F0E946400D82F8C2FE4
:100120000E944B00C82F8D2F0E945C00E4CFF894F2
:02013000FFCFFF
:100132003F065B4F666D7D077F6F777C395E797115
:00000001FF
