S00D00006877365F382E737265636B
S11300000C9434000C943E000C943E000C943E007E
S11300100C943E000C943E000C943E000C943E0064
S11300200C943E000C943E000C943E000C943E0054
S11300300C943E000C943E000C943E000C943E0044
S11300400C943E000C943E000C943E000C943E0034
S11300500C943E000C943E000C943E000C943E0024
S11300600C943E000C943E0011241FBECFEFD8E048
S1130070DEBFCDBF0E9440000C9463000C940000CE
S11300808FEF8AB914B817B82FEF83B166B16F70C8
S11300900E9457008111F9CF2BB93FE38DE093E023
S11300A0315080409040E1F700C00000EECF991B32
S11300B079E004C0991F961708F0961B881F7A955B
S10D00C0C9F780950895F894FFCF66
S9030000FC
