S00D00006877365F382E737265636B
S11300000C9434000C943E000C943E000C943E007E
S11300100C943E000C943E000C943E000C943E0064
S11300200C943E000C943E000C943E000C943E0054
S11300300C943E000C943E000C943E000C943E0044
S11300400C943E000C943E000C943E000C943E0034
S11300500C943E000C943E000C943E000C943E0024
S11300600C943E000C943E0011241FBECFEFD8E048
S1130070DEBFCDBF0E9470000C94A1000C94000060
S113008081E08BB998E02FE738E381E021503040DC
S11300908040E1F700C000008BB1880F8BB92FE7D7
S11300A038E381E0215030408040E1F700C0000097
S11300B0915049F708958BB92FEF84E39CE02150C8
S11300C080409040E1F700C000001BB82FEF84E3AC
S11300D09CE0215080409040E1F700C0000008956A
S11300E08FEF8AB914B817B883B166B1382F307856
S11300F0262F287031118195222319F0606F6195A4
S113010001C06F70611103C00E944000EDCF0E94D6
S11301109500332319F0222319F005C0222319F086
S11301200E945B00E1CF8BB9DFCF991B79E004C05B
S1130130991F961708F0961B881F7A95C9F7809522
S10901400895F894FFCFBE
S9030000FC
