S00D00006877365F382E737265636B
S11300000C9434000C943E000C943E000C943E007E
S11300100C943E000C943E000C943E000C943E0064
S11300200C943E000C943E000C943E000C943E0054
S11300300C943E000C943E000C943E000C943E0044
S11300400C943E000C943E000C943E000C943E0034
S11300500C943E000C943E000C943E000C943E0024
S11300600C943E000C943E0011241FBECFEFD8E048
S1130070DEBFCDBF0E9456000C9472000C940000A9
S11300808FEF8BB92FE38DE093E0215080409040B7
S1130090E1F700C000001BB82FE38DE093E021508E
S11300A080409040E1F700C0000008958FEF8AB9C6
S11300B014B817B883B166B16F700E9466008111DD
S11300C003C00E944000F6CF8BB9F4CF991B79E0AE
S11300D004C0991F961708F0961B881F7A95C9F7D4
S10B00E080950895F894FFCF08
S9030000FC
